{
    "_format": "hh-sol-artifact-1",
    "contractName": "NFTMintContract",
    "sourceName": "contracts/NftMintContract.sol",
    "abi": [
        {
            "inputs": [
                {
                    "internalType": "string",
                    "name": "name",
                    "type": "string"
                },
                {
                    "internalType": "string",
                    "name": "symbol",
                    "type": "string"
                }
            ],
            "stateMutability": "payable",
            "type": "constructor"
        },
        {
            "anonymous": false,
            "inputs": [
                {
                    "indexed": true,
                    "internalType": "address",
                    "name": "owner",
                    "type": "address"
                },
                {
                    "indexed": true,
                    "internalType": "address",
                    "name": "approved",
                    "type": "address"
                },
                {
                    "indexed": true,
                    "internalType": "uint256",
                    "name": "tokenId",
                    "type": "uint256"
                }
            ],
            "name": "Approval",
            "type": "event"
        },
        {
            "anonymous": false,
            "inputs": [
                {
                    "indexed": true,
                    "internalType": "address",
                    "name": "owner",
                    "type": "address"
                },
                {
                    "indexed": true,
                    "internalType": "address",
                    "name": "operator",
                    "type": "address"
                },
                {
                    "indexed": false,
                    "internalType": "bool",
                    "name": "approved",
                    "type": "bool"
                }
            ],
            "name": "ApprovalForAll",
            "type": "event"
        },
        {
            "anonymous": false,
            "inputs": [
                {
                    "indexed": true,
                    "internalType": "address",
                    "name": "previousOwner",
                    "type": "address"
                },
                {
                    "indexed": true,
                    "internalType": "address",
                    "name": "newOwner",
                    "type": "address"
                }
            ],
            "name": "OwnershipTransferred",
            "type": "event"
        },
        {
            "anonymous": false,
            "inputs": [
                {
                    "indexed": true,
                    "internalType": "address",
                    "name": "from",
                    "type": "address"
                },
                {
                    "indexed": true,
                    "internalType": "address",
                    "name": "to",
                    "type": "address"
                },
                {
                    "indexed": true,
                    "internalType": "uint256",
                    "name": "tokenId",
                    "type": "uint256"
                }
            ],
            "name": "Transfer",
            "type": "event"
        },
        {
            "inputs": [
                {
                    "internalType": "address",
                    "name": "to",
                    "type": "address"
                },
                {
                    "internalType": "uint256",
                    "name": "tokenId",
                    "type": "uint256"
                }
            ],
            "name": "approve",
            "outputs": [],
            "stateMutability": "nonpayable",
            "type": "function"
        },
        {
            "inputs": [
                {
                    "internalType": "address",
                    "name": "owner",
                    "type": "address"
                }
            ],
            "name": "balanceOf",
            "outputs": [
                {
                    "internalType": "uint256",
                    "name": "",
                    "type": "uint256"
                }
            ],
            "stateMutability": "view",
            "type": "function"
        },
        {
            "inputs": [
                {
                    "internalType": "uint256",
                    "name": "tokenId",
                    "type": "uint256"
                }
            ],
            "name": "getApproved",
            "outputs": [
                {
                    "internalType": "address",
                    "name": "",
                    "type": "address"
                }
            ],
            "stateMutability": "view",
            "type": "function"
        },
        {
            "inputs": [
                {
                    "internalType": "address",
                    "name": "owner",
                    "type": "address"
                },
                {
                    "internalType": "address",
                    "name": "operator",
                    "type": "address"
                }
            ],
            "name": "isApprovedForAll",
            "outputs": [
                {
                    "internalType": "bool",
                    "name": "",
                    "type": "bool"
                }
            ],
            "stateMutability": "view",
            "type": "function"
        },
        {
            "inputs": [],
            "name": "isMintable",
            "outputs": [
                {
                    "internalType": "bool",
                    "name": "",
                    "type": "bool"
                }
            ],
            "stateMutability": "view",
            "type": "function"
        },
        {
            "inputs": [],
            "name": "maxSupply",
            "outputs": [
                {
                    "internalType": "uint256",
                    "name": "",
                    "type": "uint256"
                }
            ],
            "stateMutability": "view",
            "type": "function"
        },
        {
            "inputs": [],
            "name": "maxTokenPerWallet",
            "outputs": [
                {
                    "internalType": "uint256",
                    "name": "",
                    "type": "uint256"
                }
            ],
            "stateMutability": "view",
            "type": "function"
        },
        {
            "inputs": [],
            "name": "mint",
            "outputs": [],
            "stateMutability": "payable",
            "type": "function"
        },
        {
            "inputs": [
                {
                    "internalType": "address",
                    "name": "",
                    "type": "address"
                }
            ],
            "name": "mintedWallets",
            "outputs": [
                {
                    "internalType": "uint256",
                    "name": "",
                    "type": "uint256"
                }
            ],
            "stateMutability": "view",
            "type": "function"
        },
        {
            "inputs": [],
            "name": "name",
            "outputs": [
                {
                    "internalType": "string",
                    "name": "",
                    "type": "string"
                }
            ],
            "stateMutability": "view",
            "type": "function"
        },
        {
            "inputs": [],
            "name": "owner",
            "outputs": [
                {
                    "internalType": "address",
                    "name": "",
                    "type": "address"
                }
            ],
            "stateMutability": "view",
            "type": "function"
        },
        {
            "inputs": [
                {
                    "internalType": "uint256",
                    "name": "tokenId",
                    "type": "uint256"
                }
            ],
            "name": "ownerOf",
            "outputs": [
                {
                    "internalType": "address",
                    "name": "",
                    "type": "address"
                }
            ],
            "stateMutability": "view",
            "type": "function"
        },
        {
            "inputs": [],
            "name": "renounceOwnership",
            "outputs": [],
            "stateMutability": "nonpayable",
            "type": "function"
        },
        {
            "inputs": [
                {
                    "internalType": "address",
                    "name": "from",
                    "type": "address"
                },
                {
                    "internalType": "address",
                    "name": "to",
                    "type": "address"
                },
                {
                    "internalType": "uint256",
                    "name": "tokenId",
                    "type": "uint256"
                }
            ],
            "name": "safeTransferFrom",
            "outputs": [],
            "stateMutability": "nonpayable",
            "type": "function"
        },
        {
            "inputs": [
                {
                    "internalType": "address",
                    "name": "from",
                    "type": "address"
                },
                {
                    "internalType": "address",
                    "name": "to",
                    "type": "address"
                },
                {
                    "internalType": "uint256",
                    "name": "tokenId",
                    "type": "uint256"
                },
                {
                    "internalType": "bytes",
                    "name": "data",
                    "type": "bytes"
                }
            ],
            "name": "safeTransferFrom",
            "outputs": [],
            "stateMutability": "nonpayable",
            "type": "function"
        },
        {
            "inputs": [
                {
                    "internalType": "address",
                    "name": "operator",
                    "type": "address"
                },
                {
                    "internalType": "bool",
                    "name": "approved",
                    "type": "bool"
                }
            ],
            "name": "setApprovalForAll",
            "outputs": [],
            "stateMutability": "nonpayable",
            "type": "function"
        },
        {
            "inputs": [
                {
                    "internalType": "uint256",
                    "name": "maxSupply_",
                    "type": "uint256"
                }
            ],
            "name": "setMaxSupply",
            "outputs": [],
            "stateMutability": "nonpayable",
            "type": "function"
        },
        {
            "inputs": [
                {
                    "internalType": "uint256",
                    "name": "maxTokenPerWallet_",
                    "type": "uint256"
                }
            ],
            "name": "setMaxTokenPerWallet",
            "outputs": [],
            "stateMutability": "nonpayable",
            "type": "function"
        },
        {
            "inputs": [
                {
                    "internalType": "bytes4",
                    "name": "interfaceId",
                    "type": "bytes4"
                }
            ],
            "name": "supportsInterface",
            "outputs": [
                {
                    "internalType": "bool",
                    "name": "",
                    "type": "bool"
                }
            ],
            "stateMutability": "view",
            "type": "function"
        },
        {
            "inputs": [],
            "name": "symbol",
            "outputs": [
                {
                    "internalType": "string",
                    "name": "",
                    "type": "string"
                }
            ],
            "stateMutability": "view",
            "type": "function"
        },
        {
            "inputs": [],
            "name": "toggleMintable",
            "outputs": [],
            "stateMutability": "nonpayable",
            "type": "function"
        },
        {
            "inputs": [
                {
                    "internalType": "uint256",
                    "name": "tokenId",
                    "type": "uint256"
                }
            ],
            "name": "tokenURI",
            "outputs": [
                {
                    "internalType": "string",
                    "name": "",
                    "type": "string"
                }
            ],
            "stateMutability": "view",
            "type": "function"
        },
        {
            "inputs": [],
            "name": "totalSupply",
            "outputs": [
                {
                    "internalType": "uint256",
                    "name": "",
                    "type": "uint256"
                }
            ],
            "stateMutability": "view",
            "type": "function"
        },
        {
            "inputs": [
                {
                    "internalType": "address",
                    "name": "from",
                    "type": "address"
                },
                {
                    "internalType": "address",
                    "name": "to",
                    "type": "address"
                },
                {
                    "internalType": "uint256",
                    "name": "tokenId",
                    "type": "uint256"
                }
            ],
            "name": "transferFrom",
            "outputs": [],
            "stateMutability": "nonpayable",
            "type": "function"
        },
        {
            "inputs": [
                {
                    "internalType": "address",
                    "name": "newOwner",
                    "type": "address"
                }
            ],
            "name": "transferOwnership",
            "outputs": [],
            "stateMutability": "nonpayable",
            "type": "function"
        }
    ],
    "bytecode": "0x608060405260076009556001600a60006101000a81548160ff0219169083151502179055506040516200359638038062003596833981810160405281019062000049919062000302565b818181600090816200005c9190620005d2565b5080600190816200006e9190620005d2565b5050506200009162000085620000a160201b60201c565b620000a960201b60201c565b60036008819055505050620006b9565b600033905090565b6000600660009054906101000a900473ffffffffffffffffffffffffffffffffffffffff16905081600660006101000a81548173ffffffffffffffffffffffffffffffffffffffff021916908373ffffffffffffffffffffffffffffffffffffffff1602179055508173ffffffffffffffffffffffffffffffffffffffff168173ffffffffffffffffffffffffffffffffffffffff167f8be0079c531659141344cd1fd0a4f28419497f9722a3daafe3b4186f6b6457e060405160405180910390a35050565b6000604051905090565b600080fd5b600080fd5b600080fd5b600080fd5b6000601f19601f8301169050919050565b7f4e487b7100000000000000000000000000000000000000000000000000000000600052604160045260246000fd5b620001d8826200018d565b810181811067ffffffffffffffff82111715620001fa57620001f96200019e565b5b80604052505050565b60006200020f6200016f565b90506200021d8282620001cd565b919050565b600067ffffffffffffffff82111562000240576200023f6200019e565b5b6200024b826200018d565b9050602081019050919050565b60005b83811015620002785780820151818401526020810190506200025b565b60008484015250505050565b60006200029b620002958462000222565b62000203565b905082815260208101848484011115620002ba57620002b962000188565b5b620002c784828562000258565b509392505050565b600082601f830112620002e757620002e662000183565b5b8151620002f984826020860162000284565b91505092915050565b600080604083850312156200031c576200031b62000179565b5b600083015167ffffffffffffffff8111156200033d576200033c6200017e565b5b6200034b85828601620002cf565b925050602083015167ffffffffffffffff8111156200036f576200036e6200017e565b5b6200037d85828601620002cf565b9150509250929050565b600081519050919050565b7f4e487b7100000000000000000000000000000000000000000000000000000000600052602260045260246000fd5b60006002820490506001821680620003da57607f821691505b602082108103620003f057620003ef62000392565b5b50919050565b60008190508160005260206000209050919050565b60006020601f8301049050919050565b600082821b905092915050565b6000600883026200045a7fffffffffffffffffffffffffffffffffffffffffffffffffffffffffffffffff826200041b565b6200046686836200041b565b95508019841693508086168417925050509392505050565b6000819050919050565b6000819050919050565b6000620004b3620004ad620004a7846200047e565b62000488565b6200047e565b9050919050565b6000819050919050565b620004cf8362000492565b620004e7620004de82620004ba565b84845462000428565b825550505050565b600090565b620004fe620004ef565b6200050b818484620004c4565b505050565b5b81811015620005335762000527600082620004f4565b60018101905062000511565b5050565b601f82111562000582576200054c81620003f6565b62000557846200040b565b8101602085101562000567578190505b6200057f62000576856200040b565b83018262000510565b50505b505050565b600082821c905092915050565b6000620005a76000198460080262000587565b1980831691505092915050565b6000620005c2838362000594565b9150826002028217905092915050565b620005dd8262000387565b67ffffffffffffffff811115620005f957620005f86200019e565b5b620006058254620003c1565b6200061282828562000537565b600060209050601f8311600181146200064a576000841562000635578287015190505b620006418582620005b4565b865550620006b1565b601f1984166200065a86620003f6565b60005b8281101562000684578489015182556001820191506020850194506020810190506200065d565b86831015620006a45784890151620006a0601f89168262000594565b8355505b6001600288020188555050505b505050505050565b612ecd80620006c96000396000f3fe6080604052600436106101665760003560e01c8063715018a6116100d1578063ada7c4ed1161008a578063c87b56dd11610064578063c87b56dd146104f5578063d5abeb0114610532578063e985e9c51461055d578063f2fde38b1461059a57610166565b8063ada7c4ed14610466578063b88d4fde146104a3578063bd823943146104cc57610166565b8063715018a61461038e578063726b83b6146103a55780637a8baf52146103bc5780638da5cb5b146103e757806395d89b4114610412578063a22cb4651461043d57610166565b806323b872dd1161012357806323b872dd1461026e57806342842e0e1461029757806346b45af7146102c05780636352211e146102eb5780636f8b44b01461032857806370a082311461035157610166565b806301ffc9a71461016b57806306fdde03146101a8578063081812fc146101d3578063095ea7b3146102105780631249c58b1461023957806318160ddd14610243575b600080fd5b34801561017757600080fd5b50610192600480360381019061018d9190611ec4565b6105c3565b60405161019f9190611f0c565b60405180910390f35b3480156101b457600080fd5b506101bd6106a5565b6040516101ca9190611fb7565b60405180910390f35b3480156101df57600080fd5b506101fa60048036038101906101f5919061200f565b610737565b604051610207919061207d565b60405180910390f35b34801561021c57600080fd5b50610237600480360381019061023291906120c4565b61077d565b005b610241610894565b005b34801561024f57600080fd5b50610258610a2d565b6040516102659190612113565b60405180910390f35b34801561027a57600080fd5b506102956004803603810190610290919061212e565b610a33565b005b3480156102a357600080fd5b506102be60048036038101906102b9919061212e565b610a93565b005b3480156102cc57600080fd5b506102d5610ab3565b6040516102e29190611f0c565b60405180910390f35b3480156102f757600080fd5b50610312600480360381019061030d919061200f565b610ac6565b60405161031f919061207d565b60405180910390f35b34801561033457600080fd5b5061034f600480360381019061034a919061200f565b610b4c565b005b34801561035d57600080fd5b5061037860048036038101906103739190612181565b610b5e565b6040516103859190612113565b60405180910390f35b34801561039a57600080fd5b506103a3610c15565b005b3480156103b157600080fd5b506103ba610c29565b005b3480156103c857600080fd5b506103d1610c5d565b6040516103de9190612113565b60405180910390f35b3480156103f357600080fd5b506103fc610c63565b604051610409919061207d565b60405180910390f35b34801561041e57600080fd5b50610427610c8d565b6040516104349190611fb7565b60405180910390f35b34801561044957600080fd5b50610464600480360381019061045f91906121da565b610d1f565b005b34801561047257600080fd5b5061048d60048036038101906104889190612181565b610d35565b60405161049a9190612113565b60405180910390f35b3480156104af57600080fd5b506104ca60048036038101906104c5919061234f565b610d4d565b005b3480156104d857600080fd5b506104f360048036038101906104ee919061200f565b610daf565b005b34801561050157600080fd5b5061051c6004803603810190610517919061200f565b610dc1565b6040516105299190611fb7565b60405180910390f35b34801561053e57600080fd5b50610547610e29565b6040516105549190612113565b60405180910390f35b34801561056957600080fd5b50610584600480360381019061057f91906123d2565b610e2f565b6040516105919190611f0c565b60405180910390f35b3480156105a657600080fd5b506105c160048036038101906105bc9190612181565b610ec3565b005b60007f80ac58cd000000000000000000000000000000000000000000000000000000007bffffffffffffffffffffffffffffffffffffffffffffffffffffffff1916827bffffffffffffffffffffffffffffffffffffffffffffffffffffffff1916148061068e57507f5b5e139f000000000000000000000000000000000000000000000000000000007bffffffffffffffffffffffffffffffffffffffffffffffffffffffff1916827bffffffffffffffffffffffffffffffffffffffffffffffffffffffff1916145b8061069e575061069d82610f46565b5b9050919050565b6060600080546106b490612441565b80601f01602080910402602001604051908101604052809291908181526020018280546106e090612441565b801561072d5780601f106107025761010080835404028352916020019161072d565b820191906000526020600020905b81548152906001019060200180831161071057829003601f168201915b5050505050905090565b600061074282610fb0565b6004600083815260200190815260200160002060009054906101000a900473ffffffffffffffffffffffffffffffffffffffff169050919050565b600061078882610ac6565b90508073ffffffffffffffffffffffffffffffffffffffff168373ffffffffffffffffffffffffffffffffffffffff16036107f8576040517f08c379a00000000000000000000000000000000000000000000000000000000081526004016107ef906124e4565b60405180910390fd5b8073ffffffffffffffffffffffffffffffffffffffff16610817610ffb565b73ffffffffffffffffffffffffffffffffffffffff161480610846575061084581610840610ffb565b610e2f565b5b610885576040517f08c379a000000000000000000000000000000000000000000000000000000000815260040161087c90612576565b60405180910390fd5b61088f8383611003565b505050565b600a60009054906101000a900460ff166108e3576040517f08c379a00000000000000000000000000000000000000000000000000000000081526004016108da90612608565b60405180910390fd5b600954600b60003373ffffffffffffffffffffffffffffffffffffffff1673ffffffffffffffffffffffffffffffffffffffff1681526020019081526020016000205410610966576040517f08c379a000000000000000000000000000000000000000000000000000000000815260040161095d9061269a565b60405180910390fd5b600754600854116109ac576040517f08c379a00000000000000000000000000000000000000000000000000000000081526004016109a390612706565b60405180910390fd5b600b60003373ffffffffffffffffffffffffffffffffffffffff1673ffffffffffffffffffffffffffffffffffffffff16815260200190815260200160002060008154809291906109fc90612755565b919050555060076000815480929190610a1490612755565b919050555060006007549050610a2a33826110bc565b50565b60075481565b610a44610a3e610ffb565b826110da565b610a83576040517f08c379a0000000000000000000000000000000000000000000000000000000008152600401610a7a9061280f565b60405180910390fd5b610a8e83838361116f565b505050565b610aae83838360405180602001604052806000815250610d4d565b505050565b600a60009054906101000a900460ff1681565b600080610ad283611468565b9050600073ffffffffffffffffffffffffffffffffffffffff168173ffffffffffffffffffffffffffffffffffffffff1603610b43576040517f08c379a0000000000000000000000000000000000000000000000000000000008152600401610b3a9061287b565b60405180910390fd5b80915050919050565b610b546114a5565b8060088190555050565b60008073ffffffffffffffffffffffffffffffffffffffff168273ffffffffffffffffffffffffffffffffffffffff1603610bce576040517f08c379a0000000000000000000000000000000000000000000000000000000008152600401610bc59061290d565b60405180910390fd5b600360008373ffffffffffffffffffffffffffffffffffffffff1673ffffffffffffffffffffffffffffffffffffffff168152602001908152602001600020549050919050565b610c1d6114a5565b610c276000611523565b565b610c316114a5565b600a60009054906101000a900460ff1615600a60006101000a81548160ff021916908315150217905550565b60095481565b6000600660009054906101000a900473ffffffffffffffffffffffffffffffffffffffff16905090565b606060018054610c9c90612441565b80601f0160208091040260200160405190810160405280929190818152602001828054610cc890612441565b8015610d155780601f10610cea57610100808354040283529160200191610d15565b820191906000526020600020905b815481529060010190602001808311610cf857829003601f168201915b5050505050905090565b610d31610d2a610ffb565b83836115e9565b5050565b600b6020528060005260406000206000915090505481565b610d5e610d58610ffb565b836110da565b610d9d576040517f08c379a0000000000000000000000000000000000000000000000000000000008152600401610d949061280f565b60405180910390fd5b610da984848484611755565b50505050565b610db76114a5565b8060098190555050565b6060610dcc82610fb0565b6000610dd66117b1565b90506000815111610df65760405180602001604052806000815250610e21565b80610e00846117c8565b604051602001610e11929190612969565b6040516020818303038152906040525b915050919050565b60085481565b6000600560008473ffffffffffffffffffffffffffffffffffffffff1673ffffffffffffffffffffffffffffffffffffffff16815260200190815260200160002060008373ffffffffffffffffffffffffffffffffffffffff1673ffffffffffffffffffffffffffffffffffffffff16815260200190815260200160002060009054906101000a900460ff16905092915050565b610ecb6114a5565b600073ffffffffffffffffffffffffffffffffffffffff168173ffffffffffffffffffffffffffffffffffffffff1603610f3a576040517f08c379a0000000000000000000000000000000000000000000000000000000008152600401610f31906129ff565b60405180910390fd5b610f4381611523565b50565b60007f01ffc9a7000000000000000000000000000000000000000000000000000000007bffffffffffffffffffffffffffffffffffffffffffffffffffffffff1916827bffffffffffffffffffffffffffffffffffffffffffffffffffffffff1916149050919050565b610fb981611896565b610ff8576040517f08c379a0000000000000000000000000000000000000000000000000000000008152600401610fef9061287b565b60405180910390fd5b50565b600033905090565b816004600083815260200190815260200160002060006101000a81548173ffffffffffffffffffffffffffffffffffffffff021916908373ffffffffffffffffffffffffffffffffffffffff160217905550808273ffffffffffffffffffffffffffffffffffffffff1661107683610ac6565b73ffffffffffffffffffffffffffffffffffffffff167f8c5be1e5ebec7d5bd14f71427d1e84f3dd0314c0f7b2291e5b200ac8c7c3b92560405160405180910390a45050565b6110d68282604051806020016040528060008152506118d7565b5050565b6000806110e683610ac6565b90508073ffffffffffffffffffffffffffffffffffffffff168473ffffffffffffffffffffffffffffffffffffffff16148061112857506111278185610e2f565b5b8061116657508373ffffffffffffffffffffffffffffffffffffffff1661114e84610737565b73ffffffffffffffffffffffffffffffffffffffff16145b91505092915050565b8273ffffffffffffffffffffffffffffffffffffffff1661118f82610ac6565b73ffffffffffffffffffffffffffffffffffffffff16146111e5576040517f08c379a00000000000000000000000000000000000000000000000000000000081526004016111dc90612a91565b60405180910390fd5b600073ffffffffffffffffffffffffffffffffffffffff168273ffffffffffffffffffffffffffffffffffffffff1603611254576040517f08c379a000000000000000000000000000000000000000000000000000000000815260040161124b90612b23565b60405180910390fd5b6112618383836001611932565b8273ffffffffffffffffffffffffffffffffffffffff1661128182610ac6565b73ffffffffffffffffffffffffffffffffffffffff16146112d7576040517f08c379a00000000000000000000000000000000000000000000000000000000081526004016112ce90612a91565b60405180910390fd5b6004600082815260200190815260200160002060006101000a81549073ffffffffffffffffffffffffffffffffffffffff02191690556001600360008573ffffffffffffffffffffffffffffffffffffffff1673ffffffffffffffffffffffffffffffffffffffff168152602001908152602001600020600082825403925050819055506001600360008473ffffffffffffffffffffffffffffffffffffffff1673ffffffffffffffffffffffffffffffffffffffff16815260200190815260200160002060008282540192505081905550816002600083815260200190815260200160002060006101000a81548173ffffffffffffffffffffffffffffffffffffffff021916908373ffffffffffffffffffffffffffffffffffffffff160217905550808273ffffffffffffffffffffffffffffffffffffffff168473ffffffffffffffffffffffffffffffffffffffff167fddf252ad1be2c89b69c2b068fc378daa952ba7f163c4a11628f55a4df523b3ef60405160405180910390a46114638383836001611938565b505050565b60006002600083815260200190815260200160002060009054906101000a900473ffffffffffffffffffffffffffffffffffffffff169050919050565b6114ad610ffb565b73ffffffffffffffffffffffffffffffffffffffff166114cb610c63565b73ffffffffffffffffffffffffffffffffffffffff1614611521576040517f08c379a000000000000000000000000000000000000000000000000000000000815260040161151890612b8f565b60405180910390fd5b565b6000600660009054906101000a900473ffffffffffffffffffffffffffffffffffffffff16905081600660006101000a81548173ffffffffffffffffffffffffffffffffffffffff021916908373ffffffffffffffffffffffffffffffffffffffff1602179055508173ffffffffffffffffffffffffffffffffffffffff168173ffffffffffffffffffffffffffffffffffffffff167f8be0079c531659141344cd1fd0a4f28419497f9722a3daafe3b4186f6b6457e060405160405180910390a35050565b8173ffffffffffffffffffffffffffffffffffffffff168373ffffffffffffffffffffffffffffffffffffffff1603611657576040517f08c379a000000000000000000000000000000000000000000000000000000000815260040161164e90612bfb565b60405180910390fd5b80600560008573ffffffffffffffffffffffffffffffffffffffff1673ffffffffffffffffffffffffffffffffffffffff16815260200190815260200160002060008473ffffffffffffffffffffffffffffffffffffffff1673ffffffffffffffffffffffffffffffffffffffff16815260200190815260200160002060006101000a81548160ff0219169083151502179055508173ffffffffffffffffffffffffffffffffffffffff168373ffffffffffffffffffffffffffffffffffffffff167f17307eab39ab6107e8899845ad3d59bd9653f200f220920489ca2b5937696c31836040516117489190611f0c565b60405180910390a3505050565b61176084848461116f565b61176c8484848461193e565b6117ab576040517f08c379a00000000000000000000000000000000000000000000000000000000081526004016117a290612c8d565b60405180910390fd5b50505050565b606060405180602001604052806000815250905090565b6060600060016117d784611ac5565b01905060008167ffffffffffffffff8111156117f6576117f5612224565b5b6040519080825280601f01601f1916602001820160405280156118285781602001600182028036833780820191505090505b509050600082602001820190505b60011561188b578080600190039150507f3031323334353637383961626364656600000000000000000000000000000000600a86061a8153600a858161187f5761187e612cad565b5b04945060008503611836575b819350505050919050565b60008073ffffffffffffffffffffffffffffffffffffffff166118b883611468565b73ffffffffffffffffffffffffffffffffffffffff1614159050919050565b6118e18383611c18565b6118ee600084848461193e565b61192d576040517f08c379a000000000000000000000000000000000000000000000000000000000815260040161192490612c8d565b60405180910390fd5b505050565b50505050565b50505050565b600061195f8473ffffffffffffffffffffffffffffffffffffffff16611e35565b15611ab8578373ffffffffffffffffffffffffffffffffffffffff1663150b7a02611988610ffb565b8786866040518563ffffffff1660e01b81526004016119aa9493929190612d31565b6020604051808303816000875af19250505080156119e657506040513d601f19601f820116820180604052508101906119e39190612d92565b60015b611a68573d8060008114611a16576040519150601f19603f3d011682016040523d82523d6000602084013e611a1b565b606091505b506000815103611a60576040517f08c379a0000000000000000000000000000000000000000000000000000000008152600401611a5790612c8d565b60405180910390fd5b805181602001fd5b63150b7a0260e01b7bffffffffffffffffffffffffffffffffffffffffffffffffffffffff1916817bffffffffffffffffffffffffffffffffffffffffffffffffffffffff191614915050611abd565b600190505b949350505050565b600080600090507a184f03e93ff9f4daa797ed6e38ed64bf6a1f0100000000000000008310611b23577a184f03e93ff9f4daa797ed6e38ed64bf6a1f0100000000000000008381611b1957611b18612cad565b5b0492506040810190505b6d04ee2d6d415b85acef81000000008310611b60576d04ee2d6d415b85acef81000000008381611b5657611b55612cad565b5b0492506020810190505b662386f26fc100008310611b8f57662386f26fc100008381611b8557611b84612cad565b5b0492506010810190505b6305f5e1008310611bb8576305f5e1008381611bae57611bad612cad565b5b0492506008810190505b6127108310611bdd576127108381611bd357611bd2612cad565b5b0492506004810190505b60648310611c005760648381611bf657611bf5612cad565b5b0492506002810190505b600a8310611c0f576001810190505b80915050919050565b600073ffffffffffffffffffffffffffffffffffffffff168273ffffffffffffffffffffffffffffffffffffffff1603611c87576040517f08c379a0000000000000000000000000000000000000000000000000000000008152600401611c7e90612e0b565b60405180910390fd5b611c9081611896565b15611cd0576040517f08c379a0000000000000000000000000000000000000000000000000000000008152600401611cc790612e77565b60405180910390fd5b611cde600083836001611932565b611ce781611896565b15611d27576040517f08c379a0000000000000000000000000000000000000000000000000000000008152600401611d1e90612e77565b60405180910390fd5b6001600360008473ffffffffffffffffffffffffffffffffffffffff1673ffffffffffffffffffffffffffffffffffffffff16815260200190815260200160002060008282540192505081905550816002600083815260200190815260200160002060006101000a81548173ffffffffffffffffffffffffffffffffffffffff021916908373ffffffffffffffffffffffffffffffffffffffff160217905550808273ffffffffffffffffffffffffffffffffffffffff16600073ffffffffffffffffffffffffffffffffffffffff167fddf252ad1be2c89b69c2b068fc378daa952ba7f163c4a11628f55a4df523b3ef60405160405180910390a4611e31600083836001611938565b5050565b6000808273ffffffffffffffffffffffffffffffffffffffff163b119050919050565b6000604051905090565b600080fd5b600080fd5b60007fffffffff0000000000000000000000000000000000000000000000000000000082169050919050565b611ea181611e6c565b8114611eac57600080fd5b50565b600081359050611ebe81611e98565b92915050565b600060208284031215611eda57611ed9611e62565b5b6000611ee884828501611eaf565b91505092915050565b60008115159050919050565b611f0681611ef1565b82525050565b6000602082019050611f216000830184611efd565b92915050565b600081519050919050565b600082825260208201905092915050565b60005b83811015611f61578082015181840152602081019050611f46565b60008484015250505050565b6000601f19601f8301169050919050565b6000611f8982611f27565b611f938185611f32565b9350611fa3818560208601611f43565b611fac81611f6d565b840191505092915050565b60006020820190508181036000830152611fd18184611f7e565b905092915050565b6000819050919050565b611fec81611fd9565b8114611ff757600080fd5b50565b60008135905061200981611fe3565b92915050565b60006020828403121561202557612024611e62565b5b600061203384828501611ffa565b91505092915050565b600073ffffffffffffffffffffffffffffffffffffffff82169050919050565b60006120678261203c565b9050919050565b6120778161205c565b82525050565b6000602082019050612092600083018461206e565b92915050565b6120a18161205c565b81146120ac57600080fd5b50565b6000813590506120be81612098565b92915050565b600080604083850312156120db576120da611e62565b5b60006120e9858286016120af565b92505060206120fa85828601611ffa565b9150509250929050565b61210d81611fd9565b82525050565b60006020820190506121286000830184612104565b92915050565b60008060006060848603121561214757612146611e62565b5b6000612155868287016120af565b9350506020612166868287016120af565b925050604061217786828701611ffa565b9150509250925092565b60006020828403121561219757612196611e62565b5b60006121a5848285016120af565b91505092915050565b6121b781611ef1565b81146121c257600080fd5b50565b6000813590506121d4816121ae565b92915050565b600080604083850312156121f1576121f0611e62565b5b60006121ff858286016120af565b9250506020612210858286016121c5565b9150509250929050565b600080fd5b600080fd5b7f4e487b7100000000000000000000000000000000000000000000000000000000600052604160045260246000fd5b61225c82611f6d565b810181811067ffffffffffffffff8211171561227b5761227a612224565b5b80604052505050565b600061228e611e58565b905061229a8282612253565b919050565b600067ffffffffffffffff8211156122ba576122b9612224565b5b6122c382611f6d565b9050602081019050919050565b82818337600083830152505050565b60006122f26122ed8461229f565b612284565b90508281526020810184848401111561230e5761230d61221f565b5b6123198482856122d0565b509392505050565b600082601f8301126123365761233561221a565b5b81356123468482602086016122df565b91505092915050565b6000806000806080858703121561236957612368611e62565b5b6000612377878288016120af565b9450506020612388878288016120af565b935050604061239987828801611ffa565b925050606085013567ffffffffffffffff8111156123ba576123b9611e67565b5b6123c687828801612321565b91505092959194509250565b600080604083850312156123e9576123e8611e62565b5b60006123f7858286016120af565b9250506020612408858286016120af565b9150509250929050565b7f4e487b7100000000000000000000000000000000000000000000000000000000600052602260045260246000fd5b6000600282049050600182168061245957607f821691505b60208210810361246c5761246b612412565b5b50919050565b7f4552433732313a20617070726f76616c20746f2063757272656e74206f776e6560008201527f7200000000000000000000000000000000000000000000000000000000000000602082015250565b60006124ce602183611f32565b91506124d982612472565b604082019050919050565b600060208201905081810360008301526124fd816124c1565b9050919050565b7f4552433732313a20617070726f76652063616c6c6572206973206e6f7420746f60008201527f6b656e206f776e6572206f7220617070726f76656420666f7220616c6c000000602082015250565b6000612560603d83611f32565b915061256b82612504565b604082019050919050565b6000602082019050818103600083015261258f81612553565b9050919050565b7f4d696e74696e672069732064697361626c656420617420746865206d6f6d656e60008201527f7400000000000000000000000000000000000000000000000000000000000000602082015250565b60006125f2602183611f32565b91506125fd82612596565b604082019050919050565b60006020820190508181036000830152612621816125e5565b9050919050565b7f416c72656164792072656163686564206d6178696d756d206d696e74696e672060008201527f6c696d6974207065722077616c6c657400000000000000000000000000000000602082015250565b6000612684603083611f32565b915061268f82612628565b604082019050919050565b600060208201905081810360008301526126b381612677565b9050919050565b7f416c726561647920736f6c64206f75742063616e6e6f74206d696e7400000000600082015250565b60006126f0601c83611f32565b91506126fb826126ba565b602082019050919050565b6000602082019050818103600083015261271f816126e3565b9050919050565b7f4e487b7100000000000000000000000000000000000000000000000000000000600052601160045260246000fd5b600061276082611fd9565b91507fffffffffffffffffffffffffffffffffffffffffffffffffffffffffffffffff820361279257612791612726565b5b600182019050919050565b7f4552433732313a2063616c6c6572206973206e6f7420746f6b656e206f776e6560008201527f72206f7220617070726f76656400000000000000000000000000000000000000602082015250565b60006127f9602d83611f32565b91506128048261279d565b604082019050919050565b60006020820190508181036000830152612828816127ec565b9050919050565b7f4552433732313a20696e76616c696420746f6b656e2049440000000000000000600082015250565b6000612865601883611f32565b91506128708261282f565b602082019050919050565b6000602082019050818103600083015261289481612858565b9050919050565b7f4552433732313a2061646472657373207a65726f206973206e6f74206120766160008201527f6c6964206f776e65720000000000000000000000000000000000000000000000602082015250565b60006128f7602983611f32565b91506129028261289b565b604082019050919050565b60006020820190508181036000830152612926816128ea565b9050919050565b600081905092915050565b600061294382611f27565b61294d818561292d565b935061295d818560208601611f43565b80840191505092915050565b60006129758285612938565b91506129818284612938565b91508190509392505050565b7f4f776e61626c653a206e6577206f776e657220697320746865207a65726f206160008201527f6464726573730000000000000000000000000000000000000000000000000000602082015250565b60006129e9602683611f32565b91506129f48261298d565b604082019050919050565b60006020820190508181036000830152612a18816129dc565b9050919050565b7f4552433732313a207472616e736665722066726f6d20696e636f72726563742060008201527f6f776e6572000000000000000000000000000000000000000000000000000000602082015250565b6000612a7b602583611f32565b9150612a8682612a1f565b604082019050919050565b60006020820190508181036000830152612aaa81612a6e565b9050919050565b7f4552433732313a207472616e7366657220746f20746865207a65726f2061646460008201527f7265737300000000000000000000000000000000000000000000000000000000602082015250565b6000612b0d602483611f32565b9150612b1882612ab1565b604082019050919050565b60006020820190508181036000830152612b3c81612b00565b9050919050565b7f4f776e61626c653a2063616c6c6572206973206e6f7420746865206f776e6572600082015250565b6000612b79602083611f32565b9150612b8482612b43565b602082019050919050565b60006020820190508181036000830152612ba881612b6c565b9050919050565b7f4552433732313a20617070726f766520746f2063616c6c657200000000000000600082015250565b6000612be5601983611f32565b9150612bf082612baf565b602082019050919050565b60006020820190508181036000830152612c1481612bd8565b9050919050565b7f4552433732313a207472616e7366657220746f206e6f6e20455243373231526560008201527f63656976657220696d706c656d656e7465720000000000000000000000000000602082015250565b6000612c77603283611f32565b9150612c8282612c1b565b604082019050919050565b60006020820190508181036000830152612ca681612c6a565b9050919050565b7f4e487b7100000000000000000000000000000000000000000000000000000000600052601260045260246000fd5b600081519050919050565b600082825260208201905092915050565b6000612d0382612cdc565b612d0d8185612ce7565b9350612d1d818560208601611f43565b612d2681611f6d565b840191505092915050565b6000608082019050612d46600083018761206e565b612d53602083018661206e565b612d606040830185612104565b8181036060830152612d728184612cf8565b905095945050505050565b600081519050612d8c81611e98565b92915050565b600060208284031215612da857612da7611e62565b5b6000612db684828501612d7d565b91505092915050565b7f4552433732313a206d696e7420746f20746865207a65726f2061646472657373600082015250565b6000612df5602083611f32565b9150612e0082612dbf565b602082019050919050565b60006020820190508181036000830152612e2481612de8565b9050919050565b7f4552433732313a20746f6b656e20616c7265616479206d696e74656400000000600082015250565b6000612e61601c83611f32565b9150612e6c82612e2b565b602082019050919050565b60006020820190508181036000830152612e9081612e54565b905091905056fea2646970667358221220120e6b6ffee7e0c314f08de87974ab8287cdbe99baef64f3aff53e4ac986ee5864736f6c63430008130033",
    "linkReferences": {},
    "deployedLinkReferences": {}
}